:1000000000800020BD010000F5960000AD960000C4
:10001000AD960000AD960000AD960000AD960000D4
:10002000AD960000AD960000AD960000F59600007C
:10003000F5960000AD9600008DAE000091AE000078
:10004000F5960000F5960000F5960000F596000084
:10005000F5960000F5960000F5960000F596000074
:10006000F5960000F5960000F5960000F596000064
:10007000F5960000F5960000F5960000F596000054
:10008000F5960000F5960000F5960000F596000044
:10009000F5960000F5960000F5960000F596000034
:1000A000158F0000218F0000F5960000F5960000E6
:1000B000F5960000F5960000F5960000F596000014
:1000C000F5960000F5960000F5960000F596000004
:1000D000F5960000F5960000F5960000F5960000F4
:1000E000F5960000F5960000F5960000F5960000E4
:1000F000F5960000F5960000F5960000F5960000D4
:10010000F5960000F5960000F5960000F5960000C3
:10011000F5960000F5960000F5960000F5960000B3
:10012000F5960000F5960000F5960000F5960000A3
:10013000F5960000F5960000F5960000F596000093
:10014000F5960000F5960000F5960000F596000083
:10015000F5960000F5960000F5960000F596000073
:10016000F5960000C19C0000F5960000F596000091
:10017000F5960000F5960000F5960000F596000053
:10018000F5960000F5960000F5960000F596000043
:10019000F5960000F5960000F5960000F596000033
:1001A000F5960000F5960000F5960000F596000023
:1001B000F5960000F596000049AC0000564B4CF255
:1001C000205210B51A804DF628121A8000BF00BFC9
:1001D00009F094FA514B4FF010621A60504A9A603D
:1001E000504ADA60504A136813F4807304D14F49BF
:1001F0000B604FF4A85313604D4B1A78110703D5C9
:100200001A7842F008021A704A4B4B492A221A7097
:100210004A4A4B4B8B4204D252F8040F43F8040B6A
:10022000F8E7484B484900228B4202D243F8042B9E
:10023000FAE74649464A002352F8230041F82300D2
:1002400001336F2BF8D1434B434A802103F8011B44
:100250009342FBD1414B3D4A1A60414B8A221A70AE
:10026000A3F5805324225A70A0221A709A7992071B
:10027000FCD59A79D406FCD43A4A937903F00C035E
:10028000082B384BF9D103221A7140225A719A79FE
:100290009006FCD5334A9179324B4906FBD5324A58
:1002A000324911600221516020221A709A7902F0BD
:1002B0000C020C2AFAD12E4B2E4A1A602E4B2F4AD2
:1002C0001A6000225A60072243F8042C2C4AC3F813
:1002D0000C2D62B609F0CCFB144B1B68DA0705D570
:1002E000284809F04BFB284B284A1A60284B1B78FA
:1002F0005B0609D5244C254B22689A4204D121483B
:1003000009F03CFB002323600DF0A0FC09F0FCF990
:100310000BF09EF8FEE700BF0E2005403080044041
:10032000823F04000100002B10D0034014D0034092
:1003300002D0074000E0074060CAFF1F7865010057
:1003400020BDFF1F60CAFF1FD8E8FF1F00B8FF1FB6
:100350000000000000E400E05FE400E008ED00E0E1
:100360000050064000400640448004400000030165
:1003700004800440C010050014E000E0FF76010096
:1003800000002020EC3300611CE00340A5C3945A18
:1003900000F00740FFFFFFFFFFFFFFFFFFFFFFFF32
:1003A000FFFFFFFFFFFFFFFFFFFFFFFFFFFFFFFF5D
:1003B000FFFFFFFFFFFFFFFFFFFFFFFFFFFFFFFF4D
:1003C000FFFFFFFFFFFFFFFFFFFFFFFFFFFFFFFF3D
:1003D000FFFFFFFFFFFFFFFFFFFFFFFFFFFFFFFF2D
:1003E000FFFFFFFFFFFFFFFFFFFFFFFFFFFFFFFF1D
:1003F000FFFFFFFFFFFFFFFFFFFFFFFFFFFFFFFF0D
:10040000FFFFFFFFFFFFFFFFFFFFFFFFDEF9FFFF23
:1004100010B5054C237833B9044B13B10448AFF33E
:1004200000800123237010BD60CAFF1F0000000080
:1004300074650100084B10B51BB108490848AFF3BB
:1004400000800848036803B910BD074B002BFBD0A0
:10045000BDE81040184700BF0000000064CAFF1F3D
:100460007465010060CAFF1F00000000F0B40024A2
:1004700000220C4DC16010274FF07E560A210781E3
:100480004661046004618461C4610562456280F86C
:100490002B10426080F8282080F8292080F82A203C
:1004A000F0BC704718FCFFFFF8B50E46044680F814
:1004B00029301146304615460DF0DCF918B3256198
:1004C0006661294630460CF00FFF4FF07E510CF06C
:1004D0000DFF014607464FF08C400DF0C3F812495E
:1004E000A061054638460DF0A7F910B194F82930FF
:1004F00073B91023238129464FF07E500DF0B2F8D6
:100500002660E061F8BD2661656128463146DAE77C
:10051000012384F82830054928460DF0A3F80DF092
:10052000D9F92081E7E700BF000048430000A04060
:10053000F8B590F82A600446002E30D090F82B00D1
:100540000025656000286AD0207B08F0A9FF636859
:1005500094F82B2001351844AA426060F4DC21890C
:1005600090FBF2F0636A60608842B8BF0020A0EBA5
:100570000303B8BF6060002BB8BF5B42994202DB47
:1005800000263046F8BD60620CF064FFE1690CF0B3
:10059000B5FF21690CF0AAFE20603046F8BD007B53
:1005A00008F07EFF94F8296080F30D0565600EB3B6
:1005B00028460CF04FFFE1690CF0A0FF0DF064F944
:1005C0000CF048FF21690CF091FE0DF05DF90CF084
:1005D00041FF216807460DF025F90028D0D1636A54
:1005E0002289EB1A002BB8BF5B429342C8DD6562DB
:1005F0002760C6E7236A2289EB1A002BB8BF5B424B
:100600009342BDDD28460CF025FFE1690CF076FF32
:1006100021690CF06BFE012620602562B1E70246DD
:100620009DE700BF054B82B01B680193019BC0F89A
:100630009C3F0123437002B0704700BF2CE7FF1FAF
:10064000F8B50C4606460021204615460DF0F4F894
:1006500050B9204920460DF00DF9C0B155BBD6F870
:10066000883FD3F8FC01F8BD55BB0027D6F8883F7A
:1006700053F8254003EB8505214668680CF034FEED
:1006800039460CF03BFF21460CF030FEF8BDC5B9F1
:1006900020460CF089FA0AF0DBFF0CF089FD0546D4
:1006A0000CF0D8FE014620460CF01EFE7E2D0746BB
:1006B000DCDDD4E7D6F8883F4FF4FE701858F8BD5B
:1006C000002420460DF0E0F8D6F8883F8000185846
:1006D000F8BD00BF0000FE422DE9F84F81460D46EF
:1006E00000F66C6600F6E46800F68C6B4FF0000ACA
:1006F00031E0304938460DF0BDF8002847D04FF4BE
:10070000FE70D9F8883F1F584FF4803300213846D7
:1007100063620DF091F850BB274938460DF0AAF8F6
:1007200048B9264938460CF0E9FE0DF0D3F8244BC1
:10073000E061984201D9224BE3610B2DC4F820A05F
:1007400065861BD00C2D2DD0A5F109039BB2012B82
:1007500022D95E4519D058F8047F56F8044F00217D
:1007600038460DF069F80028C3D00020C9E70B2DEA
:10077000C4F81CA0C4F820A06586E3D1E16904F1A7
:10078000380003F0F5FF5E45E5D1BDE8F88F384647
:100790000DF07AF88000B4E7E16904F1380003F065
:1007A00071FFD6E7A26AE16904F1380003F09AFF0D
:1007B000CFE700BF0000FE42A655AC464B24BE4723
:1007C0000000FE7FD0F8902F0D4B043A1340002B11
:1007D00010B410DB03F2B23200F68C6150F8224004
:1007E00000F66C6353F8042F8B42D462FAD10421D3
:1007F00010BCFFF771BF013B63F007030133E9E76A
:1008000007000080D0F8903F032B05DC03F5E96377
:1008100030F91310FFF760BFFFF7D4BF2DE9F041A7
:1008200088460446322133481E4615460AF08CF8A5
:10083000B8F80630042B50DDB3F5FA6F50DD2E48C2
:100840004FF4FA6798F800302370C4F8980FC4F892
:10085000947F04F66C6304F68C604FF0004153F80B
:10086000042F98429162FAD14FF48043062200216E
:1008700047F670504FF08047C4F89C3CC4F8D43C15
:10088000C4F8A03CC4F8D83CC4F8A43CC4F8DC3C90
:10089000C4F8A83CC4F8E03CC4F80C0DC4F8100D32
:1008A000C4F8141DC4F8181DA4F8562DA4F85A2D28
:1008B000A4F8602D04F62C50C4F85C7D03F0CCF84D
:1008C0000E4BC4F8885FC4F8906F20461F60FFF796
:1008D00099FF0B4B1F60BDE8F0810A480527B1E77F
:1008E00018461F460CF0B2FD01464FF07E500CF04A
:1008F000B9FEA7E70082FF1F6F12033A88E100E00C
:1009000008E100E0CDCC4C3E01F2A63370B550F8C2
:100910002350D0F8481F044628460CF0EFFD7549D7
:1009200006460CF0A7FF40B9734930460CF084FF2F
:10093000002800F0C980714800E07148C4F89C0CA0
:10094000D4F84C1F28460CF0D9FD6A4906460CF035
:1009500091FF40B9684930460CF06EFF002800F066
:10096000AB80664800E06648C4F8A00CD4F8501F7D
:1009700028460CF0C3FD5F4906460CF07BFF40B9EA
:100980005D4930460CF058FF002800F08D805B4830
:1009900000E05B48C4F8A40CD4F8541F28460CF0BF
:1009A000ADFD544906460CF065FF38B95249304652
:1009B0000CF042FF00286FD0504800E05048C4F8C7
:1009C000A80CD4F8581F28460CF098FD4949064653
:1009D0000CF050FF38B9484930460CF02DFF002884
:1009E00052D0464800E04648C4F8D40CD4F85C1F06
:1009F00028460CF083FD3F4906460CF03BFF38B912
:100A00003D4930460CF018FF002835D03B4800E047
:100A10003B48C4F8D80CD4F8601F28460CF06EFD93
:100A2000344906460CF026FF30B9334930460CF005
:100A300003FFC8B1314800E03148C4F8DC0CD4F8F9
:100A4000641F28460CF05AFD2A4905460CF012FF97
:100A500000284BD1284928460CF0EEFE00283BD058
:100A60002648C4F8E00C70BD4FF08F4130460CF0C2
:100A700045FD0CF009FFE0E74FF08F4130460CF0E8
:100A80003DFD0CF001FFC4E74FF08F4130460CF004
:100A900035FD0CF0F9FEA7E74FF08F4130460CF022
:100AA0002DFD0CF0F1FE8AE74FF08F4130460CF03F
:100AB00025FD0CF0E9FE6DE74FF08F4130460CF05C
:100AC0001DFD0CF0E1FE4FE74FF08F4130460CF07A
:100AD00015FD0CF0D9FE31E74FF08F4128460CF0A0
:100AE0000DFD0CF0D1FEC4F8E00C70BD0448C4F854
:100AF000E00C70BD00FEFF4600FEFFC60000018056
:100B00000000FF7F2DE9F04F437885B082460191C8
:100B1000002B5BD0324AD0F89C3F126803920398B6
:100B2000C01A0CF093FCDAF8981F0CF0E7FC0146B1
:100B30004FF07E500CF0D8FB002183460CF07CFE79
:100B4000002846D100250AF6E46854460AF60477E0
:100B50000DE048460CF0D2FC0CF0BCFE214BF061DD
:100B6000984226D80135082D04F1040428D057F8FE
:100B7000041F58460CF0C2FC014658F8040F0CF054
:100B8000B3FB0199C4F8280F0CF0B0FB002201461A
:100B90005046FFF755FD002181460CF04DFED4F87C
:100BA000706E114978B948460CF064FE0F49002870
:100BB000CFD001350B4BF361082D04F10404D6D1DD
:100BC00005B0BDE8F08F0023F361CBE74FF0000BD9
:100BD000B8E700238AF801304FF0000BB2E700BFFE
:100BE0002CE7FF1F0000FE7FA655AC464B24BE47F6
:100BF00070B5437882B004460D46164663B1144B77
:100C0000D0F89C1F1B680193019BD0F8942F5B1AAE
:100C10009A429CBF00234370D4F8903F0D4A4FF096
:100C20008041AB42116004D0C4F8905F2046FFF7CA
:100C3000E9FD31462046FFF765FF29462046FFF7CC
:100C400063FE054B4FF080421A6002B070BD00BFDA
:100C50002CE7FF1F88E100E008E100E02DE9F04704
:100C60008D1E8046924600F6E86400F608792E460E
:100C7000002736F9023FFF2B18460AD00CF0EAFB9A
:100C800051460CF033FB216C20600CF02DFB01373A
:100C9000206204344C45ECD107F2D937002458F8CF
:100CA000271008F6487308F6687035F9022FFF2AF6
:100CB00014BF19601C6004338342F6D1BDE8F0878D
:100CC0002DE9F04F83B08E1E00F6F86305460192C1
:100CD00000F6E8640093B046002738F9023FFF2B86
:100CE000184619D00CF0B6FB01990CF0FFFA206001
:100CF000D5F88C1F81460CF001FCD4F840A020618F
:100D00008346514648460CF0EFFA51462062584659
:100D10000CF0EAFA02372063009B04349C42DCD1D9
:100D200007F2D93705F6487355F82710002005F665
:100D3000587536F9022FFF2A1ABF19601961186019
:100D40000433AB42F5D103B0BDE8F08F03780BB1AB
:100D5000FFF7B6BFFFF782BF00207047704700BFA4
:100D6000006910B103689B6A18477047006910B1A9
:100D70000368DB6A18477047006910B103681B6994
:100D800018477047006910B103689B6918474FF016
:100D9000FF307047006910B10368DB68184770477F
:100DA000006910B10168096B0847704710B4006909
:100DB00018B10468616B10BC084710BC704700BFD5
:100DC000006910B103689B6B184700200021704731
:100DD000006910B10368DB6B1847002000217047E1
:100DE000006910B103681B6C18477047006910B1A7
:100DF00003685B6C18477047006910B103689B6C0F
:100E000018470148704700BFB44B0100006910B19A
:100E10000368DB6C1847704738B50B6904462BB183
:100E20001D6819462B6D9847204638BD4FF47A70DF
:100E3000064A23712373A06022600B692361002B93
:100E4000F2D01A6901321A61204638BD743E0100A1
:100E5000006910B103685B6D18477047006980B185
:100E600000B5036883B09B6A01220DF10701984722
:100E700020B19DF8070003B05DF804FB4FF0FF3090
:100E8000F9E74FF0FF30704710B582B002AB02684F
:100E900003F8011DD46A19460122A04702B010BD13
:100EA00010B5044602460369054906480AF02AF8C7
:100EB000206920B10368BDE810405B6A184710BD87
:100EC0009C4B010000C0FF1F10B5044600F65C609B
:100ED00009F064FE04F6486009F060FE04F6346030
:100EE00009F05CFE04F5626009F058FE04F60C603F
:100EF00009F054FE04F6F85009F050FE04F6E450F0
:100F000009F04CFE04F55D6009F048FE04F6BC50A3
:100F100009F044FE04F6A85009F040FE04F694508F
:100F200009F03CFE04F5586009F038FE204610BD7B
:100F300002690A4B10B50446036042B11369013BD4
:100F4000136123B9006910B103681B6A98472046F2
:100F500014210AF087FA204610BD00BF743E01003C
:100F6000D0F85822084B10B50446C0F848324AB1B0
:100F70001369013B13612BB9D0F8580210B1036813
:100F80001B6A9847204610BD743E0100D0F8182413
:100F9000084B10B50446C0F808344AB11369013B48
:100FA00013612BB9D0F8180410B103681B6A984775
:100FB000204610BD743E01000269084B10B504467E
:100FC000036042B11369013B136123B9006910B199
:100FD00003681B6A9847204610BD00BF743E01009D
:100FE0002DE9F04F93B000240A26404D8DF80060A3
:100FF0008DF801400294019583469DE8070003ABFC
:1010000083E807008DF80C608DF80D400495059479
:1010100093E8070006AB83E80700DFF8D4A0AAF244
:1010200094480ECB504607F055FB98F8A334C8F807
:1010300090A4002B4BD0DFF8B49000260CAD09AF84
:101040000FAC00234FF00A0E8DF825300B93CDF82E
:1010500028908DF824E097E8070085E807008DF8D0
:1010600031300E938DF830E0CDF8349095E80700DC
:1010700084E807001E4894E80E0007F02BFB98F860
:10108000A334C8F890A4C3B10F211A4801F092F814
:10109000142008F09FFC06F00301164801F08AF8BE
:1010A0000136142008F096FC042ECADDBBF1000FB7
:1010B00017D0114B114A1A60C3E70D49A1F5926090
:1010C00007F05CF90028DFD013B0BDE8F08F51467F
:1010D00008F1040007F052F90028ACD013B0BDE8C5
:1010E000F08F584613B0BDE8F08F00BF0024F40025
:1010F00000E7FF1FA0CBFF1F0CED00E00400FA0586
:1011000038B507212848294D294C03F01FFD0E2131
:10111000254803F063FD274801F020F8264802F037
:1011200041F80020FFF75CFF0146284601F0D0FFA0
:1011300040F2D24008F078FA6B7820602BB31F4D54
:101140001F4B8010032228601A6018491D4800F0C8
:10115000A3FE1D4802F090FA1B4802F0BDFA236876
:10116000124902461948FFF759FB236818491940EC
:10117000002913DB0F4801F01DF82B68002B0CDD54
:101180000C48BDE8384001F037B80D4A0B4D01213D
:1011900003281160D9DD2360D7E738BD013961F03C
:1011A00003010131E6E700BF04BEFF1FB8CBFF1FFC
:1011B000B4DDFF1FA0CBFF1F78CBFF1F7CCAFF1F32
:1011C00000BEFF1F80CAFF1FB8DDFF1F14CEFF1F28
:1011D0000300008083100E4A002B10B504461360F4
:1011E00002DD0C4801F008F80B492140002909DB19
:1011F000084800F0DFFFE1B240F2D240BDE8104005
:1012000008F02CBA013961F003010131F0E700BFA9
:101210007CCAFF1FA0CBFF1F0300008010B4074B48
:10122000074C1B6821689B00013191FBF3F203FB23
:1012300012132360184610BCFFF7CCBF00BEFF1F7F
:10124000B4DDFF1F2DE9F041394800F057FF044697
:10125000384801F0D5FF04F04005E205ADB204F4D2
:10126000087655D4230637D4334FDEB9002D30D15C
:1012700014F4187F11D114B9304B5B782BB12C4B7F
:1012800039689A682D48FFF7B3FC2D4B3A68196806
:101290002C48BDE8F04100F0BBBF0121254801F01A
:1012A0008DFFECE7224EDFF8A08031697268234899
:1012B00008EB01110A31FFF749FD98F80230002BC5
:1012C000D4D03378002BD1D01C48FFF7ABF9002DD8
:1012D000CED0FFF7A3FFCBE71B4801F0FDFE10B314
:1012E0000146184800F0C6FF17491148124F00F098
:1012F000D3FD164802F0C0F9144802F0EDF93B683E
:10130000114902460D48FFF789FA002EAED0C9E711
:101310000F210C4800F036FF322008F05BFB0C4B2D
:101320000C4A1A609EE7074800F0D2FFDCE700BFD6
:1013300080CAFF1F78CBFF1FB4DDFF1F14CEFF1F35
:101340007CCAFF1FA0CBFF1FB8CBFF1FB8DDFF1F5C
:101350000CED00E00400FA052DE9F04FDFF8F8B2DB
:10136000AD4DAE4CDFF8F48291B008F017F9DBF820
:1013700000300B93AA4B0B992A6819600023237045
:1013800063706373636123732361C4F8048012B9CB
:1013900000F017BD1A465369002BFBD1A14B0193F6
:1013A000536100274FF080439F4EE3629F48A7613F
:1013B00027816781A773E76127626762A762276356
:1013C000A786E7862787666003F0D6F92A6884F83F
:1013D0009D71C4F8A47184F89C71C4F8A071C4F81C
:1013E00094818D4B12B900F0F1BC1A465369002B61
:1013F000FBD18F4B0793536100274FF08043C4F814
:10140000BC318C48C4F89461C4F8A871A4F89871F0
:10141000A4F89A7184F89E71C4F8AC71C4F8B071E4
:10142000C4F8B471C4F8B871C4F8C071A4F8C47138
:10143000A4F8C671A4F8C87103F09EF92A6884F86C
:101440002D73C4F8347384F82C73C4F83073C4F863
:101450002483714B12B900F0BEBC1A465369002BAD
:10146000FBD1754B0693536100274FF08043C4F8BE
:101470004C337248C4F82463C4F83873A4F8287352
:10148000A4F82A7384F82E73C4F83C73C4F840732C
:10149000C4F84473C4F84873C4F85073A4F8547380
:1014A000A4F85673A4F8587303F066F92A6884F810
:1014B000BD74C4F8C47484F8BC74C4F8C074C4F8AF
:1014C000B484554B12B900F08BBC1A465369002BFB
:1014D000FBD15B4B0593536100274FF08043C4F869
:1014E000DC345848C4F8B464C4F8C874A4F8B874B8
:1014F000A4F8BA7484F8BE74C4F8CC74C4F8D07478
:10150000C4F8D474C4F8D874C4F8E074A4F8E474CB
:10151000A4F8E674A4F8E87403F02EF92A6884F8B5
:101520004D76C4F8547684F84C76C4F85076C4F8F6
:101530004486394B12B900F058BC1A465369002B47
:10154000FBD1414B0493536100274FF08043C4F813
:101550006C363E48C4F84466C4F85876A4F8487619
:10156000A4F84A7684F84E76C4F85C76C4F86076BF
:10157000C4F86476C4F86876C4F87076A4F8747613
:10158000A4F87676A4F8787603F0F6F82A6884F85A
:10159000DD77C4F8E47784F8DC77C4F8E077C4F842
:1015A000D4871D4B12B900F025BC1A465369002B95
:1015B000FBD1274B0393536100274FF08043C4F8BE
:1015C000FC372448C4F8D467C4F8E877A4F8D8777F
:1015D000A4F8DA7784F8DE77C4F8EC77C4F8F0770B
:1015E000C4F8F477C4F8F877C4F80078A4F804785D
:1015F000A4F80678A4F8087803F0BEF82A6884F8FE
:101600006D79C4F8747984F86C79C4F87079C4F889
:101610006489014B2ABBF2E32CE8FF1F14CEFF1FA5
:10162000B4CBFF1F18CEFF1F8C5D010050CEFF1FF3
:10163000A8CFFF1FE0CFFF1F38D1FF1F70D1FF1FC2
:10164000C8D2FF1F00D3FF1F58D4FF1F90D4FF1F25
:10165000E8D5FF1F20D6FF1F2CE7FF1F683E0100C3
:101660001A465369002BFBD1BE4B029353610027EE
:101670004FF08043C4F88C39BB48C4F86469C4F89F
:101680007879A4F86879A4F86A7984F86E79C4F84E
:101690007C79C4F88079C4F88479C4F88879C4F86E
:1016A0009079A4F89479A4F89679A4F8987903F03D
:1016B00063F82A6884F8FD7AC4F8047B84F8FC7A1D
:1016C000C4F8007BC4F8F48AA84B0AB99BE31A4615
:1016D0005369002BFBD1A64B0893536100274FF0B1
:1016E0008043C4F8F46AC4F81C3BA248C4F8087BE1
:1016F000A4F8F87AA4F8FA7A84F8FE7AC4F80C7B95
:10170000C4F8107BC4F8147BC4F8187BC4F8207BA1
:10171000A4F8247BA4F8267BA4F8287B03F02CF8FB
:101720009548C4F8940C0426024684F88C7C3B4609
:10173000C4F8907CC4F8848C3946A0F6AC4084F898
:101740008D6C01E0D0F8942C42F8231094F88D2C85
:1017500001339A42F6DC2A68844B0AB957E31A46E9
:101760005369002BFBD1854F57618548DFF820C2B4
:10177000C4F8CC0C00214FF480364FF0040E024622
:10178000C4F8BC8C0B46A0F6E440C4F8981CA4F83E
:10179000881CA4F88A1C84F88E1C84F8C41CC4F825
:1017A000C81CC4F884CCC4F89C6CC4F8A06CC4F801
:1017B000A46CC4F8A86C84F8C5EC01E0D0F8CC2C7B
:1017C00042F8231094F8C52C01339A42F6DC2A68BB
:1017D000664B0AB91EE31A465369002BFBD1694ECA
:1017E00056616948C4F8040D00214FF4803E4FF063
:1017F00004090246C4F8BCCC0B46C4F8F48CA0F62D
:101800001C50C4F8D01CA4F8C01CA4F8C21C84F856
:10181000C61C84F8FC1CC4F8001DC4F8D4ECC4F841
:10182000D8ECC4F8DCECC4F8E0EC84F8FD9C01E0F2
:10183000D0F8042D42F8231094F8FD2C01339A427D
:10184000F6DC2A68494B0AB9E7E21A465369002BCD
:10185000FBD1DFF84091C2F81490DFF83CE1C4F806
:10186000F4CC00214FF480304FF0010C7246C4F8E4
:101870003CED0B46C4F82C8DAEF6445EC4F8081D52
:10188000A4F8F81CA4F8FA1C84F8FE1C84F8341D93
:10189000C4F8381DC4F80C0DC4F8100DC4F8140DAC
:1018A000C4F8180D84F835CD01E0DEF83C2D42F87F
:1018B000231094F8352D01339A42F6DC2A682B4B1D
:1018C0000AB9AFE21A465369002BFBD1DFF8CCA06E
:1018D000C2F814A0DFF8C8C0C4F82CCD4FF03A0EFF
:1018E0004FF00E0CA4F856ED4FF0C10E2748A4F8A7
:1018F00058CDA4F85AED4FF0005C40F2776E00210D
:10190000C4F85CCDA4F860ED4FF01C0C4FF0010E54
:101910000246C4F8740DC4F8648D0B46A0F67C50E2
:10192000C4F8401DA4F8301DA4F8321D84F8361DFB
:1019300084F8481DA4F8541D84F86C1DC4F8701D6B
:10194000A4F862CD84F86DED01E0D0F8742D42F872
:10195000231094F86D2D01339A42F6DC2A6803496E
:101960000ABB64E278D7FF1FB0D7FF1F2CE8FF1F28
:1019700008D9FF1F40D9FF1FC0DAFF1F98DAFF1FE9
:10198000F8DAFF1FD0DAFF1F30DBFF1F90DBFF1FED
:10199000745D010008DBFF1F58DBFF1F40DBFF1FEA
:1019A000685D01001A465369002BFBD1DF4B536180
:1019B0000025DF4AC4F8642DC4F8785DA4F8685D9A
:1019C000A4F86A5D84F86E5DD848099302F0C4F902
:1019D000019BC4F8803D84F8885D84F8895DC4F873
:1019E0008C5D84F8905DC4F8847DD24809F0A2F83B
:1019F0004FF00108079AC4F8942D84F89C5DC4F850
:101A0000A05D84F8A45DC4F8987D84F89D8DCA48D3
:101A100009F090F80699C4F8A81D4FF0020E84F85A
:101A2000B05DC4F8B45D84F8B85DC4F8AC7D84F8EA
:101A3000B1EDC24809F07EF8059AC4F8BC2D4FF00C
:101A4000030E84F8C5ED84F8C45DC4F8C85D84F85D
:101A5000CC5DC4F8C07DBA4809F06CF80499C4F8AC
:101A6000D01D84F8D85D84F8D95DC4F8DC5D84F8B5
:101A7000E05DC4F8D46DB34809F05CF8039AC4F88B
:101A8000E42D84F8EC5D84F8ED8DC4F8F05D84F805
:101A9000F45DC4F8E86DAC4809F04CF80299C4F85C
:101AA000F81D4FF0020E84F801EE84F8005EC4F8D1
:101AB000045E84F8085EC4F8FC6DA44809F03AF8A6
:101AC0004FF0030E089A84F815EEC4F80C2E84F833
:101AD000145EC4F8185E84F81C5EC4F8106E9C484E
:101AE00009F028F884F8285E84F8295EC4F82C5E92
:101AF00084F8305EC4F8207EC4F8249E954809F02E
:101B000019F884F83C5E84F83D8EC4F8405E84F891
:101B1000445EC4F8346EC4F8389E8F488F4E09F086
:101B200009F88F4884F8505E84F8515EC4F8545E1A
:101B300084F8585EC4F8489EC4F84CAE00F15007D3
:101B400008F0F8FF099BC4F8603EA7F13C0084F858
:101B5000645E84F8655EC4F8685E84F86C5EC4F800
:101B60005CAE08F0E7FF0822A6F10801A7F1080023
:101B700007F07CFA0FCE0FC70FCE0FC796E80F0005
:101B800006F1100C87E80F00BCE80F0007F1100EFB
:101B9000AEE80F009CE80F0006F1300A8EE80F0057
:101BA000BAE80F0007F1300EAEE80F009AE80F0018
:101BB0008EE80F00294607F1500020220CF036FC79
:101BC00006F1300EBEE80F0007F1700EAEE80F0010
:101BD0009AE80F0006F1500C8EE80F00BCE80F00E9
:101BE00007F1900EAEE80F009CE80F0070368EE80B
:101BF0000F000FCE07F1B00EAEE80F0096E80F0011
:101C00008EE80F00019BC4F8703E079BC4F8743E39
:101C1000069BC4F8783E059BDBF80060C4F87C3E68
:101C2000049B0F96C4F8803E039BDDF83CE0C4F8AB
:101C3000905FC4F8843E029BDFF85CC1C4F89CEF5F
:101C4000484AC4F8883E484E089B4849C4F898CF93
:101C5000A7F6B8603227C4F88C3EC4F88C6FC4F87D
:101C6000947FC4F8885F0AF035FE41494148DFF8A7
:101C70002C91414C00F008FE3A4A40493D480AF098
:101C800029FE3F493F4801F0F1FA364A3E493D48B6
:101C90000AF020FE3D4800F049FA3D4BC9F80430F7
:101CA00009F114000821C9F80830C9F80C3089F886
:101CB000008089F80180C9F81050FEF7D7FB09F1C0
:101CC00040000721FEF7D2FB09F16C000621FEF768
:101CD000CDFB092109F19800FEF7C8FB09F1C4000A
:101CE00007F094F9DBF800300E930E99294AC9F8F1
:101CF000DC1000232046C9F8E820C9F8EC30C9F808
:101D0000F030C9F8F43089F8E050C9F8E45007F031
:101D10007DF92046092107F085F92046282107F0A2
:101D200013F9DBF800300C930C9939E078DBFF1FD6
:101D3000805D010094DBFF1FA8DBFF1FBCDBFF1FE2
:101D4000D0DBFF1FE4DBFF1FF8DBFF1F0CDCFF1FF6
:101D500020DCFF1F34DCFF1F48DCFF1FD43E0100E6
:101D60005CDCFF1FFCBDFF1FC520803FC90E0000CB
:101D7000C04B0100B8CBFF1F78CBFF1F610F0000E5
:101D8000D04B0100B8DDFF1F8D0F0000A0CBFF1F5F
:101D90000000104218FCFFFF0AD7A33C80CAFF1FB7
:101DA000DBF800300D930D9B84F820500A2284F854
:101DB000215084F82250A161E261636211B0BDE854
:101DC000F08F231D01932B60FFF7EBBA194A07929E
:101DD0001A60FFF711BB184A06921A60FFF744BB5E
:101DE000164A05921A60FFF777BB154A04921A60EB
:101DF000FFF7AABB134A03921A60FFF7DDBB124A32
:101E000002921A6033E4114A08921A6066E4104F95
:101E10001F60AAE40F4E1E60E3E4DFF84090C3F8B1
:101E200000901AE5DFF838A0C3F800A052E50A4B8D
:101E30000B60BDE5A8CFFF1F38D1FF1FC8D2FF1F21
:101E400058D4FF1FE8D5FF1F78D7FF1F08D9FF1F01
:101E500098DAFF1FD0DAFF1F78DBFF1F08DBFF1FB8
:101E600040DBFF1F70B50446C0F8E41008460BF0D5
:101E7000F1FA002506460246294604F16C000123CA
:101E8000FEF712FB3246294604F198000123BDE813
:101E90007040FEF709BB00BF2DE9F04104460D205C
:101EA0000D4604F1C40607F0C7FA0021082007F028
:101EB0008BFD3046082107F0B5F83046052107F0C4
:101EC00043F8697A2046FFF7CDFF2B79EF7827702A
:101ED000637068790BF0BEFA4FF07C510BF006FA94
:101EE0000646287A0BF0B6FA31460BF0FFF93B466E
:101EF0000246314604F11400FEF7D6FA2B79044A63
:101F000004F140000021BDE8F041FEF7CDBA00BF6A
:101F10000000404270B504466C30FEF709FB04F146
:101F20009800FEF705FBD4F89810E06E0BF0DEF990
:101F300000210546D4F8E4600BF07EFCC8B9701EA1
:101F40000BF088FA0646014628460BF093FC60B970
:101F500028460BF099FCD4F8E830206183421ABF80
:101F6000C4F8E8002020002070BD30460BF08CFC47
:101F7000F1E70020EFE700BFF8B504461430FEF7A4
:101F8000D7FA054604F14000FEF7D2FA0746BDB97C
:101F9000002855D0266C6378002B4CD030460AF0D0
:101FA00003FE09F055FB0BF04BF9D4F8F010A060DC
:101FB00006460BF037FCD0B945F00205ADB216E08D
:101FC0002378266C60699BB30AF0EEFD09F040FBB4
:101FD0000BF036F901466060D4F8F4004FF00105CB
:101FE0000BF020FC78BBADB2002FD4D1A66861689D
:101FF00030460BF07BF9E0600AF0D6FD09F028FBD3
:102000000646D4F8EC000F460AF0CEFD02460B4619
:10201000304639460BF084F840B9304639460BF06B
:102020000FF945F00405ADB2C4F8EC002846F8BD40
:1020300060600125D8E745F00205ADB2A660D6E79D
:1020400005462846F8BD4FF00005ADB2CCE700BF0D
:1020500030B500F1C40587B00446284606F076FF87
:10206000284606F0C1FF40B1234B1B680093009B3C
:10207000C4F8DC30012384F8E030284606F0BEFFC7
:10208000D8B11D4BD4F8DC101A680192019A521A8B
:10209000092A24D81A680392039A511AB1F57A7F53
:1020A00094BF002080201B680493049BC4F8DC309C
:1020B000002384F8E03007B030BD94F8E030BBB1C5
:1020C0000D4BD4F8DC101B680593059B41F2883258
:1020D0005B1A93420CD94FF4807007B030BD1A6878
:1020E0000292029A521AB2F57A7FD3D24020DAE7EE
:1020F000002007B030BD00BF2CE7FF1F70B50546BC
:10210000FFF708FF06462846FFF736FF0446284635
:10211000FFF79EFF34432B78204380B20BB1420778
:1021200001D4C30701D540F4007070BD30B4094A32
:10213000094C034682B007CA2468019400241C702D
:10214000019D5D6003F1080484E80700184602B0B1
:1021500030BC7047E44F01002CE7FF1F08B5012198
:10216000062007F031FC0121052007F02DFC01219C
:10217000042007F029FC01210320BDE8084007F0F6
:1021800023BC00BF10B503200C4601F0010107F08D
:1021900007FCC4F34001042007F002FCC4F38001F3
:1021A000052007F0FDFBC4F3C0010620BDE8104088
:1021B00007F0F6BB10B50C46B1FA81F149090320CE
:1021C00007F0EEFBA4F10101B1FA81F14909042005
:1021D00007F0E6FBA4F10201B1FA81F149090520FB
:1021E00007F0DEFBA4F10301B1FA81F149090620F1
:1021F000BDE8104007F0D4BB044B82B01B680193CC
:10220000019B43600122027002B070472CE7FF1F60
:10221000F0B54C1E012C83B0034608D91349114078
:1022200000291EDB1846FFF7C5FF03B0F0BD104DB7
:1022300046682C6800940231009C50F82170A11B64
:102240008F42F2D82C6801780194019C446081F09F
:10225000010101700029E1D10F21FFF7ABFF03B0AD
:10226000F0BD013961F003010131DBE703000080BB
:102270002CE7FF1F70B50023144C037082B0054695
:102280000E46002E1ADD23680093009B6A689B1A95
:10229000C72B05D823680093009B9B1AC72BF9D93D
:1022A000236829780193019B6B6081F001012970FB
:1022B00031B10F212846FFF765FFE2E702B070BD9C
:1022C0002846013EFFF75EFFDBE700BF2CE7FF1F5C
:1022D000F0B5134F83B004463E46032503E0FFF7F5
:1022E00069FF002D19DB3B680093009B62689B1A15
:1022F000632BF6D9326823780192019A626083F0E9
:102300000103294620462370002BE8D10F212046E7
:10231000013DFFF74FFF002DE5DA03B0F0BD00BF30
:102320002CE7FF1FC36D0BB101207047006E00301A
:1023300018BF0120704700BF10B50446406E18B1A9
:102340000BF0B8FC0023636604F12400BDE81040E4
:1023500005F08EBF024603690149024808F0D2BD6C
:10236000BC52010000C0FF1F2DE9F041002394B0D2
:102370001A460546243104A84FF47A74254F8DF887
:1023800004308DF80C30129313930294009705F0EB
:10239000C3FF129B002B32D0682009F061F804467D
:1023A0009DF80460029A9DF80C301B481B49267664
:1023B0004FF47A78002620606161E26184F8203071
:1023C00004F1240004A9267126732661C4F808804C
:1023D00005F020FF2369124A6761013366662E719A
:1023E000C5F808802E732C6123612A600D4B009381
:1023F00004A805F03DFF284614B0BDE8F081139B0A
:10240000002BC9D1064A2B71AC602B732B612A605B
:10241000ECE700BF4050010064500100F84F01009C
:10242000743E01001C500100826C62B1137803F00D
:10243000080303F0FF0003B3D3695069181A48BFBB
:102440006FF000407047C16CC1B191F8313003F0BA
:10245000080303F0FF0083B1D1E90423D1E90001AF
:10246000101A30B463EB010100256FF000448D4277
:1024700008BF844200D2204630BC704708467047EF
:10248000836C13B1184604F0D5BCC06C08B102F0DF
:102490005BBF4FF0FF30704700B5836C83B063B112
:1024A000184601220DF1070104F0F8FB01280CD1B8
:1024B0009DF8070003B05DF804FBC06C28B1012251
:1024C0000DF1070102F06CFEF0E74FF0FF30F1E78D
:1024D000836C13B1184604F0D3BEC06C08B103F08E
:1024E000D3BB704700B5836C83B08DF8071043B140
:1024F000184601220DF1070104F004FF03B05DF856
:1025000004FBC06C0028F9D001220DF1070103F093
:10251000A9FD03B05DF804FB38B5446E0CB120464C
:1025200038BD05464FF480700BF0BCFB0146686671
:1025300080B1E86D0C7028B14FF4807205F02EF870
:102540006C6EECE7286E40B14FF4807202F05AFDD9
:102550006C6EE4E7024C6C66E1E70C46DFE700BF17
:10256000D4E1FF1FC36D9BB11A7812F0700F00D138
:10257000704710B504460021184604F07DFD206E1A
:1025800028B100220023BDE8104002F0F5BE10BDC6
:10259000006E0028ECD090F8313013F0500FE7D0E7
:1025A0000022002302F0E8BED0B5C46D8CB1012B2F
:1025B00008BF002A01D30020D0BD1146204604F0F8
:1025C0005BFD0028F7D0204604F060FE0028F2D022
:1025D000D0BD046E002CEED0204602F0CDFE0028C7
:1025E000E9D02046BDE8D04003F0CABCC36D13B1AA
:1025F000D86900217047036E13B118695969704793
:1026000018461946704700BFC36D13B158690021C1
:102610007047036E13B193E80300704718461946DC
:10262000704700BFC36D13B1184604F037BB006E8E
:1026300008B102F0B5BD4FF0FF307047C36D13B164
:10264000184604F0F7BB006E08B102F07DBE4FF0F3
:10265000FF307047C36D33B11B7813F0700F14BF98
:10266000012000207047006E30B190F8313013F037
:10267000500F14BF01200020704700BFC36D13B17D
:10268000184604F0FDBD006E08B103F0FDBA7047B6
:10269000C36D13B1184604F035BE006E08B103F0E7
:1026A000E1BC7047836C13B1184604F02BBEC06CBC
:1026B00008B103F0D7BC7047C26D62B1137803F064
:1026C000080303F0FF0003B3D3695069181A48BF29
:1026D0006FF000407047016EC1B191F8313003F0E6
:1026E000080303F0FF0083B1D1E90423D1E900011D
:1026F000101A30B463EB010100256FF000448D42E5
:1027000008BF844200D2204630BC7047084670475C
:10271000D0B4039C16461F4634B1012C1ED0022CA7
:102720000DD00020D0BC7047C46DDCB1012B08BFB8
:10273000002AF6D220461146D0BC04F09DBCC36DE1
:10274000B3B1DA69B61847F10007012F08BF002EB0
:10275000E7D231461846D0BC04F08EBCC36D8BB1B5
:102760005A69EFE7006E0028DBD0D0BC02F004BE4F
:10277000006E0028D5D0D0E9042392197B41D0BC4B
:1027800002F0FABD006E0028CBD0D0E900239219E8
:102790007B41EAE738B5C36D144A0260044600F194
:1027A0002405F3B1284605F063FD606E08B10BF017
:1027B00081FA0F4B6361284605F05AFD22690D4BE3
:1027C000236042B11369013B136123B9206910B141
:1027D00003681B6A98472046682108F043FE20469C
:1027E00038BD036E002BDDD1DFE700BF6450010070
:1027F0001C500100743E010038B5C36D124A0260DE
:10280000044600F12405D3B1284605F031FD606E81
:1028100008B10BF04FFA0D4B6361284605F028FD17
:1028200022690B4B236042B11369013B136123B949
:10283000206910B103681B6A9847204638BD036EB3
:10284000002BE1D1E3E700BF645001001C50010000
:10285000743E0100F8B5D0F80C5204462E212846EB
:102860000CF020FA0646C4F8300228460CF028F98D
:10287000074630460CF024F929463A1A04F50D7043
:10288000BDE8F8400CF0DAB92DE9F04104461D4FDF
:1028900000254FF0240E01234FF4807832202722A8
:1028A00084F805E00E46E3702371E0802272394619
:1028B000424625706570A570657204F10A0006F045
:1028C000D5FB4246B91804F5857006F0CFFB4FF4EE
:1028D0007A720D4BC4F85022C4F84832204684F86E
:1028E0004C5284F85452C4F85852C4F80C62FFF7A2
:1028F000B1FF314604F504700CF082F82046BDE8C3
:10290000F08100BFBC500100743E01002DE9F04190
:1029100000249CB0054644722146684608F09CFCA1
:10292000234605F5047208A8A24905F08BFD1A9B01
:10293000002B00F0A380682008F092FD04464FF4BD
:102940007A729D4B9DF824009C49A26000260A9A49
:1029500023600CAF9DF82C3020766161E26184F831
:10296000203004F12400394626712673266105F0D3
:1029700051FC2369924A6666013362612361914B7F
:102980000893384605F074FCD5F858221AB113693B
:10299000013B136173B3C5F858423CB123692BB9AD
:1029A000236820461B6A9847D5F8584200263746C8
:1029B000D4B1236820461B699847002864D0D5F815
:1029C0005802F8B1036801229B6A08A99847C8B168
:1029D0009DF820105B292ED16B7A0F2B1CD8012675
:1029E000D5F85842002CE4D1684608F0F5FB1CB03D
:1029F000BDE8F081D5F858020028CCD003681B6AE6
:102A00009847C8E7012E10D0022EE9D1FF21684671
:102A100008F08EFC0226E3E7012E07D0022EDFD15C
:102A2000684608F085FC0226DAE7FF21684608F0D0
:102A30007FFC0126D4E72129E9D0012E31D0022ED6
:102A4000CED10A29E3D12021684608F0A5FC5E49D1
:102A5000064608A808F000FC08A9684608F092FCA1
:102A6000044608A808F0B8FB002C40D001236B7086
:102A70005649684608F01AFC0026B1E71B9C002C5A
:102A80007FF459AF0CAF7AE7D5F858020028ABD0E5
:102A900003681B6C9847684608F09EFB1CB0BDE8B5
:102AA000F0812C2914D05D29C0D16C7A684608F0D9
:102AB000C1FC07EBC40405EB44044449608168464B
:102AC00008F0F4FB6B7A002701336B723E4687E710
:102AD0006C7A684608F0AEFC07EBC40405EB4404CE
:102AE0003A4960816846013708F0E0FB78E73849E9
:102AF00008A808F0B1FB08A9684608F043FC0446A2
:102B000008A808F069FBACB10123002EAB70AFDD63
:102B10003246694608A808F085FC08A808F08AFC37
:102B2000E88008A808F058FBEB88042B23D805237D
:102B3000EB809DE7274908A808F08EFB08A96846A6
:102B400008F020FC044608A808F046FBDCB1002E83
:102B50008EDD3246694608A808F064FC08A808F033
:102B600069FC287208A808F037FB2B7A0B2B1AD8BF
:102B70000C232B727CE7B3F5FA6F7FF679AF4FF435
:102B8000FA63EB8074E7144908A808F065FB08A90C
:102B9000684608F0F7FB044608A808F01DFBECB1F6
:102BA00001232B7064E7482B7FF662AF48232B721A
:102BB0005EE700BF70E2FF1F64500100F84F0100A4
:102BC000405001001C500100DC520100B44B0100D8
:102BD000E4520100EC520100F45201001D4908A822
:102BE00008F03AFB08A9684608F0CCFB804608A824
:102BF00008F0F2FAB8F1000F3FF43AAF002E17DDFB
:102C0000324604A8694608F00DFC134908A808F0EC
:102C100023FB08A904A808F0CFFB064608A808F083
:102C2000DBFA002E06DD2C7104A808F0D5FA1FE7A8
:102C3000EC701DE7094908A808F00EFB08A904A8D4
:102C400008F0BAFB064608A808F0C6FA002EEBDD2D
:102C5000EC70E8E7FC52010008530100105301003A
:102C6000F0B5D14BD3F8844495B0054600F5047710
:102C7000002C00F0818121466846002401233A4659
:102C80006E468DF800408DF801408DF8024003F04B
:102C9000F7FF002840F06C8144F202233A463046A8
:102CA000C24905F0CFFB129B002B00F0C9816820C0
:102CB00008F0D6FB04469DF80460029ABC48BD4962
:102CC00026764FF47A730026A36004AF9DF80C308B
:102CD00020606161E26184F8203004F1240039460B
:102CE00026712673266105F095FA2369B24A666655
:102CF000013362612361B14B0093384605F0B8FAA5
:102D0000D5F858222AB11369013B1361002B00F05A
:102D10002181C5F858421CB12369002B00F02381A2
:102D200005F512743C22A649204608F0B9F8204661
:102D300008F0CCF83C22A349204608F0B1F8204620
:102D400008F0C4F83D22A049204608F0A9F8204622
:102D500008F0BCF83D229D49204608F0A1F8204625
:102D600008F0B4F83C229A49204608F099F8204629
:102D700008F0ACF800229749204608F091F8204668
:102D800008F0A4F83E229449204608F089F820462D
:102D900008F09CF83E229149204608F081F8204630
:102DA00008F094F83E228E49204608F079F8204633
:102DB00008F08CF83E228B49204608F071F8204636
:102DC00008F084F83D228849204608F069F820463A
:102DD00008F07CF800227F49204608F061F8204680
:102DE00008F074F828228149204608F059F8204656
:102DF00008F06CF833227E49204608F051F820464E
:102E000008F064F82F227B49204608F049F8204654
:102E100008F05CF833227849204608F041F8204653
:102E200008F054F819227549204608F039F8204670
:102E300008F04CF800226749204608F031F8204697
:102E400008F044F815226E49204608F029F820467B
:102E500008F03CF815226B49204608F021F820467E
:102E600008F034F819226849204608F019F820467D
:102E700008F02CF819226549204608F011F8204680
:102E800008F024F81A226249204608F009F8204682
:102E900008F01CF81A225F49204608F001F8204685
:102EA00008F014F81D225C49204607F0F9FF20467F
:102EB00008F00CF819225949204607F0F1FF204686
:102EC00008F004F819225649204607F0E9FF204689
:102ED00007F0FCFF18225349204607F0E1FF204687
:102EE00007F0F4FF18225049204607F0D9FF20468A
:102EF00007F0ECFF19224D49204607F0D1FF20468C
:102F000007F0E4FF18224A49204607F0C9FF20468F
:102F100007F0DCFF13224749204607F0C1FF204697
:102F200007F0D4FF1D224449204607F0B9FF204690
:102F300007F0CCFF26224149204607F0B1FF20468A
:102F400007F0C4FFD5F8580210B103681B6C98470E
:102F500015B0F0BDD5F8580200283FF4DAAE03688A
:102F60001B6A9847D5E6236820461B6A9847D7E630
:102F7000684604F0AFFC8FE6D3F888146E4600294B
:102F80003FF48AAE684601233A468DF831408DF809
:102F900032408DF8334002F0D1FC00283FF47CAE83
:102FA000684602F039FD77E66CE2FF1F70E2FF1F12
:102FB00064500100F84F0100405001001C50010016
:102FC000185301005853010098530100D8530100D1
:102FD00018540100B44B01005854010098540100EA
:102FE000D8540100185501005855010098550100AA
:102FF000C4550100F8550100285601005C56010037
:103000007856010090560100A8560100C4560100F0
:10301000E0560100FC560100185701003857010026
:1030200054570100705701008C570100A857010048
:10303000C4570100E0570100F45701001458010083
:10304000139C002C7FF433AE04AF54E670B58EB001
:1030500089B900F1080300F5847403F11001B3F994
:10306000022123F8022F8B42F9D19C42F5D1102383
:1030700043720EB070BD154BD3F88454044600F56E
:103080000472A5B100262946334668468DF80060D3
:103090008DF801608DF8026003F0F2FD10B9204652
:1030A000FFF7DEFD2046FFF731FC0EB070BDD3F810
:1030B00088140029F3D02B4668468DF831508DF8DE
:1030C00032508DF8335002F039FCE7E76CE2FF1F15
:1030D00080F80A12FFF7BABF2DE9F04700F50D7727
:1030E000804698B038460BF0EBFC404490F8104214
:1030F0002E2C4ED0303C092C26DCDFF8A490CA469A
:10310000092C3A46244902A827D00134234624D06A
:10311000D8F8305200950BF0E5FBD9F8845400261E
:10312000334602AA29460AA805B38DF828608DF80F
:1031300029608DF82A6003F0A3FD0028E0D002A9E1
:1031400008F504700BF05CFC404698F80A12FFF793
:103150007DFF204618B0BDE8F087D8F830320F491F
:103160003A4602A80BF0BEFB0024D6E7DAF88864E2
:103170002B4602AA31460AA8002EC1D08DF859501C
:103180008DF85A508DF85B5002F0D8FB0028B7D06C
:10319000D5E70024B1E700BF445801003C580100C6
:1031A0006CE2FF1F08B501210B2006F00DFC012188
:1031B0000920BDE8084006F007BC00BF30B5054651
:1031C00083B080F8201049B90C46092006F0E8FBCE
:1031D00021460B2006F0E4FB03B030BD012109209D
:1031E00006F0DEFB01210B2006F0DAFB034B1B6827
:1031F0000193019BAB6103B030BD00BF2CE7FF1F03
:1032000010B590F8203084B004467BB1164B81692C
:103210001B680393039BC2695B1A9A4201D304B0F3
:1032200010BD0021FFF7CAFF04B010BD05F08EFEEF
:10323000204605F0D9FE84F8220070B9616A0A4B75
:103240001B680293029B591A13298CBF002101218C
:103250000B2006F0A5FB04B010BD034B1A680192C9
:1032600001996162ECE700BF2CE7FF1F30B4002238
:103270004FF47A75084CC0F81054C0F80844C0F8F0
:10328000001280F80C2480F81424C0F81824C0F828
:10329000042430BC704700BF743E010070B584B098
:1032A0000C466846444907F0D7FF6946204608F0B7
:1032B00083F80546684607F08FFF002D2EDD3F4955
:1032C000684607F0C9FF6946204608F075F80546CC
:1032D000684607F081FF002D66DD21462B4600225F
:1032E000684608F07BF8684608F0AAF80446684685
:1032F00007F072FF324920460AF0B4F931490AF06A
:10330000B1F909F051FC02460B4600204FF0804114
:1033100008F026FA09F094FF04B070BD2A49684607
:1033200007F09AFF6946204608F046F805466846C9
:1033300007F052FF002D33DD2349684607F08CFF6C
:103340006946204608F038F80546684607F044FF0D
:103350002B4621460022684608F040F8684608F0EF
:103360006FF80646684607F037FF21466A1C684634
:1033700008F058F8684608F063F80446684607F015
:103380002BFF304600210AF04DFA90B9002120466B
:103390000AF048FA68B9214630460AF063F9BBE7FB
:1033A000204608F04DF8B7E7204608F049F80446F3
:1033B000A0E7002004B070BD745601008C580100D5
:1033C0000000C84200004041C458010070B582B0FE
:1033D0000446FFF763FF0A2106461D4807F0B0F9CF
:1033E000D4F804141B4807F0DBFD04211A4807F049
:1033F000A7F9304609F0D8FB04250B460246009594
:10340000144807F0D5FD134807F060FDD4F80454C4
:1034100004EB85034FF080413046C3F804620AF0A4
:103420000BFA88B101357F2DC4F8045402DC00206A
:1034300002B070BD4921094807F082F9054807F03C
:1034400045FD012002B070BD012002B070BD00BF7B
:10345000C858010000C0FF1FD4580100DC5801000B
:10346000F0B59BB0D0F800227C490023044606A8A2
:1034700004F0E8FF189B002B00F0D680682007F0CE
:10348000EFFF05464FF47A72754B9DF81C007549A5
:10349000AA600026089A2B600AAF9DF8243028768F
:1034A0006961EA6185F8203005F1240039462E7102
:1034B0002E732E6104F0AEFE2B696B4A6E660133EB
:1034C0006A612B61694B0693384604F0D1FED4F84B
:1034D000182422B11369013B1361002B43D0C4F8B7
:1034E00018541DB12B69002B00F099804FF07E53CA
:1034F0000126C4F804325E49C4F8046402A807F047
:10350000ABFE002106A807F0A7FE0025D4F818049A
:10351000D0B103681B699847002800F08B80D4F86D
:10352000180440B3036801229B6A0DF10701984714
:1035300008B39DF8071055B3D4F81804B1F10A0583
:1035400018BF01250028E4D1D4F80444012CD4BFCD
:103550000024012406A807F03FFE02A807F03CFE65
:1035600020461BB0F0BDD4F818040028B7D003687B
:103570001B6A9847B3E7002DC8D1012E4FF0FF0119
:1035800018D0022E10D0032E07D00025BEE7212927
:1035900024D1032E14D00125B8E70A2933D002A87C
:1035A00007F0C6FE0025B1E702A807F0C1FE02261B
:1035B0000025ABE702A807F0BBFE01260025A5E722
:1035C000049B012BE7D902A92046FFF7FFFE002844
:1035D00030D1274902A807F069FEDCE7012E31D17E
:1035E0000A29E7D1049B4BB9224906A807F05EFEE1
:1035F0001F4902A807F05AFE022687E702A906A87B
:1036000007F04CFEF4E702A92046FFF7DFFE88B979
:10361000174902A807F04AFE0326002576E72B6823
:1036200028461B6A984761E7199D002D7FF426AF55
:103630000AAF47E7D4F81804002885D003681B6C4C
:10364000984781E7022E9ED10A29ADD102A807F042
:10365000F1FE0028DCD100247CE700BF70E2FF1FF0
:1036600064500100F84F0100405001001C5001005F
:10367000B44B01002859010070B5164BD0F8002258
:10368000D3F884448EB006467CB1002521462B46F3
:1036900068468DF800508DF801508DF8025003F007
:1036A000EFFA90B900200EB070BDD3F8881400294D
:1036B000F8D0234668468DF831408DF832408DF8B9
:1036C000334002F03BF90028ECD03046FFF7C8FE4B
:1036D0000EB070BD6CE2FF1F2DE9F047D0F8047406
:1036E000022F82B0814650DD00EB87034649D3F8B4
:1036F000044220460AF0AAF8002870D1204609F0BA
:1037000053FACDE90001384609F0A4FEA9F10408F6
:1037100082466FF0440423E02946304609F048FD14
:1037200094FBF7F509F02EFA02460B46DDE900019D
:1037300008F016F809F084FD002C07FB154501463A
:1037400043DB324909F0DAFE014609EB8505013415
:10375000D5F8040209F0D2FE3B2C48F8040F30D013
:10376000204609F077FE514609F07CFF09F01CFA6B
:1037700007F06EFF0022002306460D4609F0F8FC14
:103780000028C9D105F10045C6E7051F00242046E1
:1037900009F060FE1E4909F0A7FD09F005FA02468E
:1037A0000B4617A1D1E9000107F0DAFF0022194BFF
:1037B00009F04EFA09F044FD0134802C45F8040F5D
:1037C000E5D1484602B0BDE8F087104809F04AFF4D
:1037D0003D44014695FBF7F307FB1355B5E724215C
:1037E0000D480E4C06F0ACFF0D4807F06FFB0023B0
:1037F000D9F80474CDE9003485E700BFAFF3008049
:10380000000000A08FF3F03F77CC2B320000DC43A8
:1038100000008A4200807B40305901000000F03FE8
:1038200000C0FF1F2DE9F04F002183B0054607F0CF
:103830005FF90090002800F0FB802B7F002B00F048
:103840008C80009A02F5827302F1040A9A45019372
:103850007CD2DDF804E056E02B7F022B00F0828062
:10386000032B66D0042B00F08880052B00F0968097
:10387000062B00F0E080072B00F0A180012B00F068
:10388000B2806B6A2A6A5B1403EBA2329C18181987
:103890001F1803EB070C03EB0C0699190B444FF6AA
:1038A000FF7BDAF80090DAF8048032FB09F234FB8F
:1038B00019F4C2EA044230FB08F037FB18F7C0EAFB
:1038C0000747DAF808003CFB00F0DAF8084036FB5E
:1038D00014F6C0EA0646DAF80C0031FB00F133FBBF
:1038E00010F3C1EA03438AE88400CAF80860CAF802
:1038F0000C302A6A6B6AA5F81EB013440AF1100A4C
:103900002B62D64522D9E98B0029A5D06B6A2A6A99
:103910005B1403EBA2329C1818191F1803EB070C59
:1039200003EB0C0601F1FF3B99191FFA8BFB0B44CB
:10393000B7E72B6BEA8DEA834FF00401D64503F11C
:103940004043297793FBF2F36B62DCD8009C284656
:103950000022214607F0A6F8204603B0BDE8F04F4C
:1039600007F076B8AB8DEB83002BE2D003234FF04A
:1039700080422A6269622B77C3E72B6B69624FF042
:1039800005022A779A132B6211461346164694466F
:103990001746104614464FF6FE7B82E76B6A2A6A8A
:1039A0005B1403EBA2329C1818191F1803EB070CC9
:1039B00003EB0C0699190B444FF6FE7B71E72B8D38
:1039C0002962EB83D3B103F1FF3B4FF001022A7769
:1039D0000B461FFA8BFB69620E468C460F46084663
:1039E0000C460A465DE76B8DEB834FF002022A77A7
:1039F0004FF0804292FBF3F36B6282E7B5F82AB096
:103A00004FF0804393FBFBF35A145400101917181E
:103A100002EB070C02EB0C060BF1FF3B91194FF088
:103A200002086B6285F81C801FFA8BFB531838E77D
:103A300003B0BDE8F08F019B2977534586D9CAF8BA
:103A40000010CAF80410CAF808100AF1100A534509
:103A50004AF8041CF3D879E772B6037F012B0DD91D
:103A6000C28E5AB1072B07D0036AC28307215B427B
:103A7000017793FBF2F2426262B67047038DC38313
:103A80000022026223B101234262037762B67047CB
:103A9000428DC28302214FF08043017793FBF2F302
:103AA000436262B6704700BF10B5044607F072F972
:103AB000204610BD024A0349034808F00BBF00BF6F
:103AC000FCBDFF1FA93A0000D8E1FF1F38B5074D24
:103AD000074C08482A46214608F0FCFE2A462146A3
:103AE0000548BDE8384008F0F5BE00BFFCBDFF1F2B
:103AF000A93A0000E0E1FF1FE8E1FF1F024A034985
:103B0000034808F0E7BE00BFFCBDFF1FA93A000054
:103B1000F0E1FF1F024A0349034808F0DBBE00BF83
:103B2000FCBDFF1FA93A0000F8E1FF1F024A03494C
:103B3000034808F0CFBE00BFFCBDFF1FA93A00003C
:103B400000E2FF1F024A0349034808F0C3BE00BF5A
:103B5000FCBDFF1FA93A000008E2FF1F024A03490B
:103B6000034808F0B7BE00BFFCBDFF1FA93A000024
:103B700010E2FF1F024A0349034808F0ABBE00BF32
:103B8000FCBDFF1FA93A000018E2FF1F2DE9F84312
:103B90004FF00008064600F11805474641463046FA
:103BA000002F4FD006F098FFF0B12C68B4F5803F9D
:103BB00007F1040100F1040E07F5827C27D05EF8BE
:103BC000042B34FB02F334FB12F903F30F0209F365
:103BD0000F03C2EA03430A6893FA12F341F8043B65
:103BE0008C45ECD806F034FF08F10108B8F1040F59
:103BF00005F10405D2D1002F40D0304639460022CD
:103C000006F050FF3846BDE8F84306F021BF07F143
:103C10000C0100F10C0451F8083C54F8082C93FAFC
:103C200012F341F8083C54F8042C51F8043C93FA80
:103C300012F38C4541F8043C04F1080401F1080139
:103C4000E9D8CFE706F054FF07460028CCD0286813
:103C5000B0F5803FC8D0391D07F582740B6830FB82
:103C600003F230FB13F302F30F0203F30F03C2EA74
:103C7000034341F8043B8C42F0D8B5E7BDE8F88334
:103C8000024A0349034808F025BE00BFFCBDFF1FE0
:103C9000A93A000020E2FF1F10B5002106F01CFF2A
:103CA00070B172B60A4B1A6872B10A490C6844B115
:103CB0001C60086062B61046BDE8104006F0C8BE41
:103CC00010BD086062B610BD186062B610BD00BFBE
:103CD00038E2FF1F28E2FF1F38B5184B18491A6851
:103CE000184C12681B79184D0B70A242286836BF19
:103CF0002246A4F5807202F58074C0B1011D31F92D
:103D0000023B03F500431B1122F8023B9442F6D814
:103D100006F09EFE0D4B0022196829601A600C4BBC
:103D20001B781BB10B4B4FF080421A6038BD4FF42B
:103D3000006322F8023B9442FBD8F0E72CE2FF1F1D
:103D40001F800040E0B5FF1F38E2FF1F28E2FF1F81
:103D500034E2FF1F08E200E0F8B501214248434E7B
:103D600006F0B4FF424A43491368802043F480536D
:103D700013600024087040F60805348001200834E0
:103D800005F028FEA3B2AB421CB2F6D13A4B1B6839
:103D90005B0208D5394B1A6848F6A273134048F6FF
:103DA000A27293424FD03449344A0B68344F354D98
:103DB0003548364C43F480030B604FF0010E40F25F
:103DC0003F4648F6A37140F20113C7F800E02E60A9
:103DD000116014600360244C2D4A236823491A6043
:103DE00002259D802279196102F1804202F5043298
:103DF000284EDE6040F20111D9804FF4807000211E
:103E00000627B026D8829D60D88399829F839961C6
:103E10001170167006F000FF22791F4B1F4E1870AC
:103E200053119B0003F160431D4C327003F5614355
:103E300002F1100002F01F0701211A4D44F8205032
:103E4000B9401960F8BD0F4B1A6840F23F439A42DF
:103E5000A9D10B4B1B68012BA5D10B4B1A6840F263
:103E600001139A429FD1B6E72CE2FF1F00C00C401D
:103E70002C80044021C00C403C8004400060034082
:103E80000C6003400460034010600340A28F0100F7
:103E9000E0B4FF1F00FEFFFF34E2FF1F1B80004065
:103EA00000B8FF1FD93C0000024A0349034808F04C
:103EB00011BD00BFFCBDFF1FA93A00002CE2FF1F8F
:103EC000024A0349034808F005BD00BFFCBDFF1FBF
:103ED000A93A00003CE2FF1F024A0349034808F0E8
:103EE000F9BC00BFFCBDFF1FA93A000044E2FF1F60
:103EF000024A0349034808F0EDBC00BFFCBDFF1FA8
:103F0000A93A00004CE2FF1F024A0349034808F0A7
:103F1000E1BC00BFFCBDFF1FA93A000054E2FF1F37
:103F2000024A0349034808F0D5BC00BFFCBDFF1F8F
:103F3000A93A00005CE2FF1F024A0349034808F067
:103F4000C9BC00BFFCBDFF1FA93A000064E2FF1F0F
:103F50000B12FF2B10B4C9B217DDC3F5FF7201328B
:103F6000C3F500730D4C34F9120034F913204342A9
:103F7000524201FB03F0C1F5807102FB0100803069
:103F8000001200F5C04010BC704704485A1C0233B0
:103F900030F9122030F91330EBE700BF5859010017
:103FA000B1F5704F2DE9F0410F460546164627DC66
:103FB00098460C4611E0FFF7CBFF08F00F0205EB27
:103FC0008202D2F810311844C2F8100104F580546E
:103FD000B4F5704F08F1010809DC002C2146284691
:103FE000F4DB002EE7D1FFF7B3FF4042E5E7C7F56A
:103FF000704323F47F6323F00F0307F580571F44BA
:10400000D5F8083105EBC302013303F01F039760B5
:104010001673C5F80831BDE8F08100BF70B50568BA
:10402000002D16DBC5F10043164604464A1B180353
:10403000190D002309F06EFCB0F5805F18BF4142F6
:104040003346204608BF03490022BDE87040FFF711
:10405000A7BF70BD01F0FFFFF8B500EBC105064634
:10406000AC682F7B214604F58054FFF771FFB4F54F
:10407000003FAC6007DB054A7368002F18BF4FF4A0
:1040800040421344736007B94042F8BD0040FFFF4F
:1040900070B5D0F80C31D0F808414668E31ADB0659
:1040A00023D00546013C04F01F0421462846FFF7B3
:1040B000D3FFD5F80C319C420644F3D101340C4BAC
:1040C00055F834209A4210DDD5F8082104F01F0479
:1040D0009442C5F80C4108D0013455F834209A4276
:1040E000C4BF04F01F04C5F80C41304670BD00BFCA
:1040F000FFFF010038B504460D46FFF7C9FF2168F0
:104100004FF44042A1FB0223A3F5C043002D00FA67
:1041100083F005DB002903DA636803F5404363603D
:1041200038BD00BF002970B51546044602681DDB86
:10413000002A00DB70BD564200238A1A3003310D7D
:1041400009F0E8FB94F8503140F6FF71B0F5805F5C
:1041500008BF0846002BEDD12B46414201222046E4
:10416000FFF71EFF012384F85031E3E7002AE1DB6B
:10417000D0F854319B1A18038A1A190D002309F03C
:10418000C9FB94F8503140F6FF71B0F5805F08BF6D
:104190000846002BCED02B46414200222046FFF796
:1041A000FFFE002384F8503170BD00BFF8B50D4606
:1041B00090F85011044617461E46D9B10268D0F84F
:1041C00054118A4219D2A9424BD8891A0803AA1A53
:1041D0000023090D09F09EFBB0F5805F18BF414236
:1041E000334608BF204900222046FFF7D9FE0023AE
:1041F00084F850312268002A00DBF8BD002DFCDB7A
:1042000051420803AA1A0023C4F85471090D09F099
:1042100081FBB0F5805F14BF414213493346012250
:104220002046FFF7BDFED4F8541101238D4284F8D7
:104230005031E2D32268891A0803AA1A0023090D13
:1042400009F068FBB0F5805F18BF4142334608BFF4
:10425000054900222046FFF7A3FE002384F85031D1
:10426000F8BDAA42C9D9B0E701F0FFFF70B50E1E34
:10427000054614460EDB31462846FFF73BFF04F0A7
:104280000F0205EB8202B2F91031C2F81001184694
:104290002E6070BDFFF7C2FEEDE700BF70B50546AA
:1042A0000E461446FFF73EFF31462846FFF7F0FE64
:1042B00004F00F0205EB8202B2F91031C2F81001CE
:1042C00018462E6070BD00BFF8B504460D46164670
:1042D0001F46FFF76BFF29462046FFF7D9FE0C4922
:1042E00007F00F0304EB8303A1FB0621761A01EB11
:1042F0005601D3F81061090C7211C1F54051014407
:10430000C2EB6600C3F8101100B22560F8BD00BF13
:10431000016000802DE9F04F436AC469866985B069
:104320002BB906EBC414846105B0BDE8F08F0546D7
:10433000076A06F039FB8046002800F09481B5F941
:104340003230F2190092071D0C2B35D8DFE813F03C
:104350006B0088009500AA000D00CB00E200F00081
:104360000701500150016E015400EE6A002E00F06A
:104370007881D5F824C0009900F5827E38460A0E6F
:10438000531CB3F5807F14BF5B000023C1F30F29DA
:10439000F35E36F9122009FB03F3C9F5803909FBF6
:1043A000023353FB0CF320F8023B70452144E6D165
:1043B000009B03EBC41300932C6A009AB5F93430C8
:1043C000141BAC616BB108F5827101E0B5F93430B2
:1043D000B7F90020134403F30F0327F8023BB94257
:1043E000F4D828460022414606F05CFB404605B062
:1043F000BDE8F04F06F02CBBDDF8009005F1380B5E
:10440000BA460026A14433464946AA6A5846FFF7F1
:104410005BFF6B6A013603FB00F00014802E2AF864
:10442000020BEFD1C4E7D5F824C0954E009900F5F2
:10443000827E38460B0E5A1C36F9139036F912203C
:10444000C1F30F2ACAF5803309FB03F30AFB0233D9
:1044500053FB0CF320F8023B86452144EAD1A7E741
:104460006E6A009A00F582703B4636FB12F123F823
:10447000021B83422244F8D19AE76E6A26F34F0664
:10448000009A30B208F10603764208F58371002ADB
:10449000B4BF23F8026C23F8020C02339942224481
:1044A000F5D185E7811DD5F824C0009A00F5837009
:1044B00009E00CFB03F31B1421F8023C0231884293
:1044C00022443FF475AF930F013B012B4FEAE233D7
:1044D000EFD8D30BC3F57F43FF330CFB03F31B0C67
:1044E00021F8023CEAE76E6A26F34F06A86A009AB2
:1044F0000FFA86FE08F10603764208F583719042B2
:104500008CBF23F802EC23F8026C02338B42224466
:10451000F5D14DE7686A009A08F58276C0433B46BC
:1045200030FB12F123F8021BB3422244F8D13FE7DB
:1045300000F5827A009BB94603E0D14533463FF44B
:1045400037AFB5F9302029F8022BE618F5D3686AA1
:1045500006F03EFE6B6AA0EB63002886EDE7AB6ACF
:10456000CDF80C804FEA5309190C6FEA0902019249
:10457000C1F57F434FF0FF3A08F5837BFF33D5F851
:1045800024C0BAFBF3F306303E46009ABAFBF1FAB8
:1045900002979E46DDF804801EE0C9EB02073F0C3F
:1045A0000EFB07F76FF0004109EB0203C91B1B0C60
:1045B00009140AFB03F30CFB01F103F100439045DE
:1045C0004FEA21414FEA234346D9318002308345E7
:1045D000224406F102064BD0130C0AFB03F31B0C1A
:1045E0000CFB03F391454FEA1343D6D93380EDE733
:1045F000DDF8009005F1380A00F1060B0026A14411
:10460000324649465046FFF731FEB5F932300A2BA3
:104610006B6A08BF5B4203FB00F301361B14802E5C
:104620002BF8023C0BF1020BE9D1C1E6DDF800905A
:1046300005F1380ABB460026A14432464946504699
:10464000FFF72CFE6B6A013603FB00F00014802E8E
:104650002BF8020BF0D1ABE60CFB03F31B143380F9
:10466000B4E706F0F5F9AB6903EBC413AB615BE6A5
:10467000009B029FDDF80C8003EBC41300939BE6C4
:104680005C5B0100F8B5C1EBC1646401002C144B04
:1046900004604FF00005A8BF4FF4C0430E46074624
:1046A0000C444360C0F80851C0F80C510EE021469C
:1046B0003846FFF71FFD05F00F034433013500B204
:1046C000202D47F823003C60344407D0002CEEDA5C
:1046D0002A4621463846FFF7A1FCE8E7F8BD00BFAF
:1046E00000A0FFFF2DE9F843C1EBC1646401002382
:1046F000A242894606469046C0F854210460C0F89C
:104700000831C0F80C3129D94FF4C042012342606E
:1047100080F85031144BA3FB0823C3EB080703EBCD
:1047200057073F0C4C44C7F5405700252B46214600
:1047300042463046FFF73AFD21463046FFF7A8FCD7
:1047400005F00F0338444433013500B2202D46F8FC
:10475000230034604C44E9D1BDE8F883034A80F873
:1047600050314260D6E700BF0160008000A0FFFF2B
:104770004FF00042FFF7B6BF00224FF4C041416046
:10478000C0F80821C0F80C210260704710B4047F03
:104790004160022CC26002D010BC06F015BB8368D9
:1047A00010BC18472DE9F0410468E56815F0807FDA
:1047B000794D256052D1DF0740F1B380002900F028
:1047C000E3800D78012B18BF45F00045656301318A
:1047D00090F8248003F1FF3C48EA0828BCF1000F60
:1047E00000F0A88021B14D7811F8028B45EA082825
:1047F00045682E7ABCF1020F06F1FF364FEA063605
:104800000CBF48F0805548F01045B6B26563ACF176
:10481000020C08E00AB114700132013B05F4704546
:10482000B54216D90468E56A15F0F00FF6D0A46B0E
:1048300013F0010F17464FEA242EEBD11AB107F8F7
:1048400002EB54703A4605F47045B542A3F10203F9
:10485000E8D8BCF1000F6DD00468C3E7DD074CD584
:10486000002900F089800D78012B18BF45F0004524
:104870006563013103F1FF3E90F824C0BEF1000FE3
:1048800041D029B191F801C00D78023145EA0C2CD4
:1048900045682E7ABEF1020F06F1FF364FEA063662
:1048A0000CBF4CF080554CF01045B6B26563AEF1CC
:1048B000020E08E00AB114700132013B05F47045A4
:1048C000B54215D90468E56A15F0F00FF6D013F07B
:1048D000010F1746A46BEDD122B107F8024B241249
:1048E00054703A4605F47045B542A3F10203E9D885
:1048F000BEF1000F07D00468C3E79E4690F824C0BD
:10490000BEF1000FBDD11BB30468E16A11F0F00FD6
:10491000FBD0A16BDC071DD50AB111700132013B40
:10492000F1E790F824809C4648EA0828BCF1000F83
:104930007FF458AF63B10468E16A11F0F00FFBD067
:10494000DE07A16B0FD50AB111700132013BF1E70F
:10495000BDE8F0812AB114460D1204F8021B55700F
:104960002246023BCFE72AB114460D1204F8025B3F
:1049700051702246023BDDE790F82450012B18BF0E
:1049800045F00045656375E790F82450012B18BF8A
:1049900045F0004565631BE700041F80F0B4464BFB
:1049A000464A186BDC6A01791170454922790A7010
:1049B0009A6A00790870002A46D05968C9688A4204
:1049C0003ED82168CC8B240402F1FF3065D4C0F3BB
:1049D0000E00C883C88B80B2C882196B0968C88B67
:1049E000000452D4C2F30E00C883C88B002480B2E6
:1049F00012F1FF32C88218BF01229C62D96A2E4888
:104A000009680D6800F12404A54236D00068C46826
:104A100014F0804F0C680D6815BF24882478023587
:104A2000013544F000440D604463196B254B09794E
:104A30001970214912B1CA6A12791A70F0BC704714
:104A4000521A9A620122D9E7586B196805681E4C00
:104A50000A63CC62CC682D681C4E24F08044032786
:104A6000B542CC6083F825701FD1037F4260022BD2
:104A7000C2601ED0F0BC06F0A7B9016890F824000F
:104A8000CC6840F000404863CFE7CC8BC2F308000D
:104A900004F47E442043C883A7E7CC8BC0F308000E
:104AA00004F47E442043C88394E72B461146F0BCAF
:104AB00018478368F0BC184704BEFF1F1F800040E2
:104AC0001C8000401B80004000000FFF8D4700004D
:104AD00090E80C00F0B41C6859682568164F174E12
:104AE00029432160164D17491760D6601561116082
:104AF000417A154A5C180A3194F8244053F8215041
:104B000002EBC40149680D60017A5C1803EB810176
:104B1000247ECD6902EBC40149680D60817A581882
:104B200003EB810390F83000596B02EBC002F0BC3C
:104B300053681960704700BF01401F000110003822
:104B40000110007800001F80745F0100204A436854
:104B50009A42F0B40FD0427A1A4492F8242091423B
:104B600007D093F824408C4215D093F825408C420E
:104B70002AD0F0BC70470B2907D00729EBD1154C80
:104B8000227842F001022270E5E7124C227822F0EE
:104B900001022270DFE7002421461E685D68366846
:104BA0002E420FD00C4D05EBC202002756685A1852
:104BB000376092F8242005EBC2050A316A6853F881
:104BC000213013604472D4E701242146E5E700BF99
:104BD0001C5E010078E8FF1F745F0100204A4368F3
:104BE0009A42F0B40FD0827A1A4492F8302091425F
:104BF00007D093F830408C4215D093F831408C4266
:104C00002BD0F0BC70470D2907D00E29EBD1154CE5
:104C1000227842F004022270E5E7124C227822F05A
:104C200004022270DFE7002421461E685D683668B2
:104C30002E4210D00C4D05EBC202002756685A18C0
:104C4000376092F830200C3105EBC20503EB81038D
:104C50006A685B6813608472D3E701242146E4E745
:104C60001C5E010078E8FF1F745F01000BB1FFF7C5
:104C700099BD7047704700BF10B5D0F884448EB01E
:104C8000A4B10A4668462146012300248DF800405D
:104C90008DF801408DF8024001F0F2FF08B90EB026
:104CA00010BD684602F016FE0EB010BDD0F88804A4
:104CB0000028F4D00A460123014668468DF83140A9
:104CC0008DF832408DF8334000F038FE0028E6D0F1
:104CD000684600F0A1FE0EB010BD00BF10B5D0F8C0
:104CE00084448EB07CB10A46012304F244416846F4
:104CF00000248DF800408DF801408DF8024001F04D
:104D0000FDFE0EB010BDD0F888040028F9D00A4688
:104D1000012300F5896168468DF831408DF83240F5
:104D20008DF8334001F088F80EB010BD30B5D0F8E2
:104D300084448FB074B100250A462B46214668464C
:104D40008DF800508DF801508DF8025001F098FF59
:104D50000FB030BDD0F888040028F9D00A462346A9
:104D6000014668468DF831408DF832408DF8334069
:104D700000F0E4FD0FB030BD38B50546D0F884042E
:104D8000C0B1C469013C03F05FF9D5F88434241A3A
:104D900043B198794FF4007303FA00F080B2A0FB9E
:104DA000040138BDD5F8883463B1D3F83C04A0FBC6
:104DB000040138BDD5F8880420B1D0F8304401F0A2
:104DC00025FCE2E70020002138BD00BF70B5D0F817
:104DD00084448EB01646C4B1002504F244440A4609
:104DE0002B46214668468DF800508DF801508DF80D
:104DF000025001F0E5FE08B90EB070BD3246214602
:104E0000684602F04DF80EB070BDD0F88804002856
:104E1000F2D000F589650A462346294668468DF892
:104E200031408DF832408DF8334000F013FD0028FA
:104E3000E2D032462946684601F058F80EB070BDFF
:104E400030B5D0F884448FB0A4B100250A462B4673
:104E5000214668468DF800508DF801508DF80250BB
:104E600001F00EFF08B90FB030BD684602F0D6F869
:104E70000FB030BDD0F888040028F4D00A4623468D
:104E8000014668468DF831408DF832408DF8334048
:104E900000F054FD0028E6D0684600F027FE0FB071
:104EA00030BD00BFD0F884244AB19179D0694FF465
:104EB00000738B409BB20138A3FB00017047D0F810
:104EC000882432B1D2F83034D2F83C04A3FB00017C
:104ED00070470020002170472DE9F041012B94B06C
:104EE000054641D0022B01F1040140F2022368463D
:104EF00018BF002303F0A6FA129B002B3DD06820B8
:104F000006F0AEFA04469DF8046022482249029A4F
:104F10009DF80C30206004AF2676616100264FF4C6
:104F20007A78394604F12400E26184F82030267151
:104F300026732661C4F8088003F06CF923691749C9
:104F4000174A666601332E71C5F808802E732C61EE
:104F5000616123612A60134B0093384603F088F99E
:104F6000284614B0BDE8F08144F2022304316846BB
:104F700003F068FA129B002BC1D1139B002BBED10A
:104F80004FF47A71064A2B712B732B61A9602A604A
:104F900004AFE0E764500100F84F01004050010009
:104FA000743E01001C500100F0B40C4B0C480D4F36
:104FB000186000242925012683F8A35483F8A64409
:104FC000C3F8987483F8A164C3F88444C3F8884490
:104FD000054A06491846F0BC07F07CBC6CE2FF1F8E
:104FE0009C5E010001100138FCBDFF1F754C0000E4
:104FF00010B5044600F048FE002384F8313084F8F0
:10500000333010BD2DE9F04300F1240381460F46F3
:10501000154693E8070085B099F8313001AE86E86F
:105020000700002B3ED099F83030012B3FD94FF0CC
:1050300001080024B8F1010F14BF2022402231469C
:10504000D9F8200001F05CFA01282BD1002231466A
:10505000D9F8200001F03AFA20B30378C12B21D10E
:10506000391904F10F0E00E0144630F8023F621CBB
:1050700093B1AA4210D27E2B94BFDBB23F2372457C
:1050800001F8013BF0D108F1010899F830305FFADE
:1050900088F843451446CDD8002320463B5505B03B
:1050A000BDE8F0830020387005B0BDE8F08300242F
:1050B000F2E700BF90F831200AB10020704738B500
:1050C00004460D461146382209F0B0F9402301206C
:1050D00084F8313084F83300256238BDF0B50878A3
:1050E000202803D111F8010F2028FBD05160087847
:1050F000002851D02F282BD05C2820D0A0F12204EA
:10510000E4B21D2C1DD9DFF894E04E1C00247C284D
:10511000A0F12005374612D05E2D10D816F8010BED
:10512000A0F12205EDB2013478B32F2811D05C280C
:105130002EFA05F703D01D2DE9D8FD07E7D500208D
:10514000F0BD164D25FA04F4E607DCD50020F0BDCD
:1051500000240F193E4625462F2002E016F8010FC5
:1051600001352028FAD02F28F8D02944196044B1FD
:10517000394611F8013D2E2B01D0202B08D1013CDE
:10518000F7D1204610600120F0BD1F600F19EFE736
:10519000FF2CF6DD0020F0BD1960F3E701010035BA
:1051A0002DE9F04F90F83330DE0783B004465AD52E
:1051B0005D060E46934640F1B780D4E90001D4E97C
:1051C000042310EB0B0841F100094B4508BF424591
:1051D000C0F0B080BBF1000F6ED0A146F9E8060127
:1051E0005D46276AD7F838340340C3F3080A002B1A
:1051F00068D150EA010274D194F8312051064CBFB5
:10520000D7F83424E269A261D7F82C0497F845E472
:105210005B0A023A191802FA0EF21144BAF1000FB1
:105220002CD1B5F5007F29D3D7F81C22914225D087
:10523000B5F5806F5CD34FF0010808FA0EF8C3EBA8
:1052400008034FEA5528984528BF984691423BD815
:1052500008EB01039A4237D207F50470019103F07D
:105260002BFD019980BB94F832304FF0FF3043F0B2
:10527000020384F8323003B0BDE8F08F07F5047004
:10528000002203F0EBFC0028EDD0CAF50078A84519
:1052900028BFA84600EB0A014246304603F0E6FE6E
:1052A00042460023D4E9000180185941B5EB0805B6
:1052B0004644C4E9000194D10025C5EB0B0003B0BE
:1052C000BDE8F08FA2699FE7D7F814024346324643
:1052D00003F066FB0028C6D04FEA48284246002368
:1052E000E0E794F83320520610D5A26901328AE72C
:1052F000D7F814020123324603F052FB0028B2D043
:105300004FF4007200234FF40078CBE738464A464A
:10531000A169019301F020F940B20028A3DB0CD071
:10532000276AA269019B6FE790F8313018073FF5B3
:1053300044AF4FE7C0EB020B4CE794F8313013F069
:10534000500FBAD18FE700BFF0B583B001220DF145
:1053500007010446D0E900678569FFF721FF0128AE
:1053600008BF9DF80700A56118BF4FF0FF30C4E9E2
:10537000006703B0F0BD00BF2DE9F04F90F831E0B9
:10538000856983B00446BEF1000F1BD0D0E900014F
:10539000994208BF904216461F463BD056EA070383
:1053A00007D10023A3610120C4E9006703B0BDE871
:1053B000F08F1EF0080F0AD0D4E90423BB4208BFC7
:1053C000B24204D2A561002003B0BDE8F08F236A89
:1053D000019393F845C494F833A00CF1090C5FFADB
:1053E0008CFC16F1FF3247F1FF33CCF1200803FAB1
:1053F00008FB22FA0CF242EA0B02ACF1200B23FA72
:105400000BF31AF0400F42EA030205D0E3691A4495
:10541000A261C8E70120D7E710F1FF3941F1FF3A57
:1054200029FA0CFC0AFA08F84CEA080C2AFA0BFBD9
:105430004CEA0B0C6245534617D21EF0400F16BFC4
:10544000019BE369D3F83434A361904604F1180951
:105450004A46B8F1000FA6D0A169206A01F07CF895
:1054600008F1FF380028F3D1ACE750EA0103E4D09B
:10547000CCEB0202E9E700BF2DE9F04F0E4693B0F6
:1054800090F831100092054629B99A4696F83130C5
:1054900013F0500F07D1002085F8310085F8330054
:1054A00013B0BDE8F08F1C9B03F00303012B06D063
:1054B000022B00F00981002BEDD1012300E0022333
:1054C0001C9A02F0080213430193009B002B00F08A
:1054D000FD8018460022514601F07AF996F83130E5
:1054E00002904BB1D6E90023134305D000220023DC
:1054F000C6E900230021B161B84A0AF10E0382FB1C
:1055000003121A44DB17C3EBE203DBB24FF00009CE
:10551000039302335FFA83FB4C464F4620220AA9CD
:105520003046FFF73DFE00283DD02028B3D19DF83E
:1055300028301A0666D4002C61D13268B16907910F
:10554000203A08920134E4B26BB3C02B00F0938090
:10555000C12B62D0852BE1D138220021284608F0EA
:1055600065FF9DF82C309DF8292085F83020D8065D
:1055700003F0370258BF42F0080285F83120336843
:10558000316AB2696A62203B2962AB6296F83330B5
:10559000C3F3801385F82C3020220AA93046FFF788
:1055A000FFFD0028C1D11C9B99057FF574AF019BBD
:1055B0009A077FF570AF009B002B3FF46CAF5C4502
:1055C0000CD386E020287FF466AF24B93268B16935
:1055D0000791203A0892DCB2A3457AD920220AA981
:1055E0003046FFF7DDFD631C0028EBD13046B7697C
:1055F00000F078FB00283FF44EAFB761ECE75C4564
:10560000A2D29FE7B9F1000F9FD15C4538BF0024BB
:10561000852B83D14FF001099EE7C7EB0A085FFA9B
:1056200088F8B8F10F0F28BF4FF00F0843463A46ED
:1056300000990AA801F0A0F800283CD04744FFB226
:10564000BA457FF46BAF1C9B1B053FF524AF1C9B39
:1056500013F4884F40F0A08095F833309F0700F195
:105660009B801C9B5B053FF516AF1C9B580400F10B
:10567000B780012014E79DF82930019A85F833207E
:10568000990703D542F0400385F83330DDE90C2358
:10569000DDE91001C5E904230F9BEB61009BC5E91F
:1056A0000201002BCFD09DF82B30534505D04FF091
:1056B00000094F4632E7814630E7BDF82C30029AA8
:1056C0009342F4D1002729E70323F9E6009B0293D4
:1056D00012E796F833303822C3F3801300212846AE
:1056E0000DF11C088DF8243008F0A0FE039C336AED
:1056F000CDF80CA098E8070004F10109082485F80A
:1057000031400AF11E0705F12404DDF800A02B62E8
:105710005FFA89F984E80700FFB2002618460122E3
:10572000414600F0D3FE044600283FF4B4AE90F9A1
:105730000030002BFFF6AFAE2022002108F076FEED
:10574000002E66D0012E54D0C6EB06130F2FA3F106
:105750001E034FF0C102394628BF0F21DBB2227071
:1057600051B1023409B204EB4101534413F8012B47
:1057700024F8022BA142F9D10136F6B2B34529D95A
:1057800020224146286A00F0BBFE01287FF483AE48
:105790000F3FFFB2286AC2E795F8313013F0110FBE
:1057A0007FF479AE1C9B5E057FF55FAF95F83330D3
:1057B0009C077FF570AE002200232846FFF7DCFD32
:1057C00000283FF468AE284600F0DAFB00283FF4DA
:1057D00062AE4EE7284600F057FA61E6898888886D
:1057E000D5E904232846FFF7C7FD00287FF441AF21
:1057F00051E6C0232370019B032263F03F036270D4
:1058000085F833309DF80C30E370BDF80830A38084
:10581000B2E7852323700E4B85F8309084F8019011
:105820001B687BB10DF117020DF11A0106A898470C
:10583000BDF81810BDF81A209DF81730618122813B
:10584000237599E745F221236381E381638293E71E
:1058500020E7FF1F2DE9F041044694B094F8315041
:10586000039200208DF849008DF84A008DF84B0016
:1058700035B9984691F8313013F0500F0F4603D1E7
:10588000002014B0BDE8F08113782F2B154626D0E8
:1058900000261AE0039B1B782046002B34D0059A83
:1058A0009DF810300096FFF7E7FD342221460028CE
:1058B000E6D006A803F0DAFB204600F0E5F9039DE8
:1058C00084F8316084F8336006AF294603AB04AA3C
:1058D0002046FFF703FC39460028DBD1D0E701352D
:1058E000039529782F29FAD0D1B1382206A80021B2
:1058F0003E6A08F09BFD4022012306AF0E968DF80C
:1059000049208DF84B30C3E79DF81030059ACDF84B
:10591000008039462046FFF7AFFD14B0BDE8F081A6
:10592000382220463D6A08F081FD4023012025628F
:1059300084F8313084F83300A3E700BF19B101F5D2
:105940008961FFF787BF0846704700BF90F8313084
:1059500053B930B591F8314014F0500483B00D467E
:1059600004D1204603B030BD00207047D5E9004582
:10597000002504F01F042C4302D0184603B030BDAC
:1059800000921A46FFF778FD03B030BD8169F8B583
:105990000446006A01B10131012200F0CBFC01286C
:1059A00006462FD9012301461A46206A00F01CFD45
:1059B000074638B3A06994F8333030B35A0613D58C
:1059C000421C964225D023F0400284F83320E3693C
:1059D00005E0206A00F0CAFDA0B1A0692B465D1C5D
:1059E000834219462A46F4D34FF0FF323146206AEB
:1059F00000F0BCFD30B1A16959B13246206A00F017
:105A0000B5FD30B900273846F8BD43F0400384F8AF
:105A10003330A6613846F8BD2DE9F04300F1240388
:105A2000054693E8070085B095F8333001AE86E867
:105A300007009A071BD5E969E9B90024012231461C
:105A4000286A00F043FD0134E4B280B1037803F02A
:105A50007F03037095F83030A34231D3002CEDD092
:105A600020223146286A00F04BFD0128E6D00020B4
:105A700005B0BDE8F0835B06286A1CD5D5E9022392
:105A800090F845440934E4B212F1FF3843F1FF398C
:105A9000C4F1200709FA07F728FA04F2A4F1200359
:105AA00029FA03F33A431A430132002300F09CFC25
:105AB0000028C2D1DBE700F069FD0028BDD1D6E7A0
:105AC0002C6A0023204685F8313085F8333003F006
:105AD000F3F80028CBD004F5047003F0EDF80028AB
